:100000000C945D000C9485000C9485000C94850084
:100010000C9485000C9485000C9485000C9485004C
:100020000C9485000C9485000C9485000C9485003C
:100030000C9485000C9485000C9485000C9485002C
:100040000C9447030C9485000C94B7030C94910313
:100050000C9485000C9485000C9485000C9485000C
:100060000C9485000C94850000000008000201003B
:100070000003040700000000000000000000000072
:10008000250028002B0000000000240027002A0083
:10009000040404040404040402020202020203032E
:1000A0000303030301020408102040800102040836
:1000B0001020010204081020E90311241FBECFEF15
:1000C000D8E0DEBFCDBF11E0A0E0B1E0E4EAF6E1A8
:1000D00002C005900D92AA33B107D9F722E0AAE336
:1000E000B1E001C01D92AF32B207E1F710E0CDE5FB
:1000F000D0E004C02197FE010E94450BCC35D1070A
:10010000C9F70E9483040C94500B0C94000090E0FB
:10011000FC01EC55FF4F2491FC01E057FF4F849107
:10012000882399F090E0880F991FFC01EA57FF4F50
:10013000A591B491FC01E458FF4F859194918FB73C
:10014000F894EC91E22BEC938FBF0895E09140017D
:10015000F09141010190F081E02D682F80E491E061
:10016000099490E0FC01E859FF4F3491FC01EC55F3
:10017000FF4F2491FC01E057FF4FE491EE2309F477
:100180003BC0332339F1333091F038F43130A9F0EA
:10019000323001F584B58F7D12C0373091F03830A0
:1001A000A1F03430B9F4809180008F7D03C080913C
:1001B00080008F77809380000DC084B58F7784BDD9
:1001C00009C08091B0008F7703C08091B0008F7D0F
:1001D0008093B000F0E0EE0FFF1FE458FF4FA591B1
:1001E000B4918FB7F894EC91611103C020952E2340
:1001F00001C02E2B2C938FBF08958E3008F08E50A7
:100200008770806480937C0080917A008064809302
:100210007A0080917A0086FDFCCF80917800209151
:10022000790090E0922B0895CF92DF92EF92FF92A7
:100230000F931F93CF93DF936C017A018B01C0E082
:10024000D0E0CE15DF0589F0D8016D918D01D60182
:10025000ED91FC910190F081E02DC6010995892B6B
:1002600011F47E0102C02196ECCFC701DF91CF913E
:100270001F910F91FF90EF90DF90CF900895089518
:1002800080E090E00895FC01538D448D252F30E0EF
:10029000842F90E0821B930B541710F0CF96089593
:1002A00001970895FC01918D828D981761F0828DE0
:1002B000DF01A80FB11D5D968C91928D9F5F9F739A
:1002C000928F90E008958FEF9FEF0895FC01918D3C
:1002D000828D981731F0828DE80FF11D858D90E0A9
:1002E00008958FEF9FEF0895FC01918D228D892F46
:1002F00090E0805C9F4F821B91098F73992708952E
:1003000080E491E00E94740121E0892B09F420E04F
:10031000822F0895FC01848DDF01A80FB11DA35A1F
:10032000BF4F2C91848D90E001968F739927848F15
:10033000A689B7892C93A089B1898C9180648C930C
:10034000938D848D981306C00288F389E02D8081F7
:100350008F7D80830895EF92FF920F931F93CF9329
:10036000DF93EC0181E0888F9B8D8C8D981305C005
:10037000E889F989808185FD24C0F62E0B8D10E077
:100380000F5F1F4F0F731127E02E8C8DE8120CC0EA
:100390000FB607FCFACFE889F989808185FFF5CF90
:1003A000CE010E948A01F1CF8B8DFE01E80FF11D75
:1003B000E35AFF4FF0820B8FEA89FB8980818062CC
:1003C00007C0EE89FF896083E889F98980818064AC
:1003D000808381E090E0DF91CF911F910F91FF909A
:1003E000EF900895CF93DF93EC01888D8823C9F0B7
:1003F000EA89FB89808185FD05C0A889B9898C912E
:1004000086FD0FC00FB607FCF5CF808185FFF2CFC8
:10041000A889B9898C9185FFEDCFCE010E948A0110
:10042000E7CFDF91CF91089580E090E0892B29F00C
:100430000E94800181110C9400000895009769F0DA
:10044000FC0101900020E9F73197AF01481B590BDF
:10045000BC0180E491E00C94140180E090E00895E8
:100460008F929F92AF92BF920F931F93CF93DF9380
:10047000CDB7DEB7A1970FB6F894DEBF0FBECDBFE4
:1004800019A2423008F44AE08E010F5D1F4F842EFE
:10049000912CA12CB12CA50194010E94230BE62FD5
:1004A000B901CA0101501109EA3014F4E05D01C03C
:1004B000E95CD801EC93232B242B252B61F7C80191
:1004C0000E941E02A1960FB6F894DEBF0FBECDBFEC
:1004D000DF91CF911F910F91BF90AF909F908F9020
:1004E00008954F925F926F927F928F929F92AF92F8
:1004F000BF92CF92DF92EF92FF926B017C01B42EFC
:100500009B01AC010E941E0B882319F082E191E04F
:1005100027C026013701E89477F82FEF3FEF4FE728
:100520005FE7C301B2010E941E0B81110DC02FEFC6
:100530003FEF4FE75FE7C301B2010E944D09181674
:100540001CF486E191E00CC02FEF3FEF4FE75FE432
:10055000C701B6010E94AC0A181684F48AE191E042
:10056000FF90EF90DF90CF90BF90AF909F908F90D3
:100570007F906F905F904F900C941E022FEF3FEF93
:100580004FE75FECC701B6010E944D0987FDE6CF3A
:1005900020E030E0A901C701B6010E944D0987FFA4
:1005A00009C08DE20E94A6004C01F7FAF094F7F81A
:1005B000F09402C0812C912CA12C60E070E080E0CE
:1005C0009FE3AB1441F020E030E040E251E40E94B0
:1005D0005209A394F6CF9B01AC01C701B6010E945A
:1005E000E1082B013C010E94CB096B017C010E94B8
:1005F000FA099B01AC01C301B2010E94E0082B0182
:100600003C014AE0C701B6010E9430027C01E80CBF
:10061000F91CBB2029F08EE20E94A600E80EF91E0C
:10062000DB2CDD2021F120E030E040E251E4C30189
:10063000B2010E94B10A2B013C010E94CB094B017F
:10064000A12CB12C4AE0C501B4010E943002E80E91
:10065000F91EC501B4010E94FA099B01AC01C30156
:10066000B2010E94E0082B013C01DA94DACFC70105
:10067000FF90EF90DF90CF90BF90AF909F908F90C2
:100680007F906F905F904F9008950E944B0B1F9248
:100690000F920FB60F9211242F933F938F939F9336
:1006A000AF93BF938091DD019091DE01A091DF01B6
:1006B000B091E00130913F0123E0230F2D3720F46A
:1006C0000196A11DB11D05C026E8230F0296A11DAC
:1006D000B11D20933F018093DD019093DE01A09333
:1006E000DF01B093E00180913B0190913C01A0912A
:1006F0003D01B0913E010196A11DB11D80933B01CA
:1007000090933C01A0933D01B0933E01BF91AF9106
:100710009F918F913F912F910F900FBE0F901F903F
:1007200018951F920F920FB60F9211242F933F939B
:100730004F935F936F937F938F939F93AF93BF93E9
:10074000EF93FF9380E491E00E948A01FF91EF9183
:10075000BF91AF919F918F917F916F915F914F91D9
:100760003F912F910F900FBE0F901F9018951F92E1
:100770000F920FB60F9211242F938F939F93EF93A5
:10078000FF93E0915001F09151018081E091560179
:10079000F091570182FD12C09081809159018F5FC5
:1007A0008F7320915A01821751F0E0915901F0E0C6
:1007B000E05CFE4F958F8093590101C08081FF91CD
:1007C000EF919F918F912F910F900FBE0F901F90DF
:1007D0001895E0E4F1E01382128288EE93E0A0E045
:1007E000B0E084839583A683B78384E091E091830E
:1007F000808385EC90E09587848784EC90E09787F0
:10080000868780EC90E0918B808B81EC90E0938BDD
:10081000828B82EC90E0958B848B86EC90E0978BBA
:10082000868B118E128E138E148EEDEEF1E085EE16
:1008300091E0978F868F89EE91E0958F848F81EE7E
:1008400091E091A380A312AE12AA13AA14AA15AA2A
:1008500080E090E0AFE7B3E486AB97ABA0AFB1AF79
:1008600084E690E0A0E0B0E086A797A7A0ABB1AB8C
:10087000118E108E81E090E0938F828F83AF8AE09B
:1008800097EDA3E2BDE380839183A283B3834DEC14
:100890005CEC6CE47DE344835583668377834AE0B4
:1008A00057ED63EA7BE340875187628773878487CC
:1008B0009587A687B7878BE097EDA3EABBE3808B8C
:1008C000918BA28BB38B8CEC9CECACE4BDE3848B62
:1008D000958BA68BB78B2FB7F8948091DD01909103
:1008E000DE01A091DF01B091E0012FBF46A557A521
:1008F00060A971A9841B950BA60BB70B82A393A3C8
:10090000A4A3B5A30895CF93DF93CDB7DEB76597C2
:100910000FB6F894DEBF0FBECDBF789484B5826069
:1009200084BD84B5816084BD85B5826085BD85B593
:10093000816085BD80916E00816080936E00109211
:10094000810080918100826080938100809181008C
:10095000816080938100809180008160809380001D
:100960008091B10084608093B1008091B00081607B
:100970008093B00080917A00846080937A008091A7
:100980007A00826080937A0080917A0081608093FF
:100990007A0080917A00806880937A001092C1007A
:1009A00087E080932E020E94870061E080912E02F2
:1009B0000E94B10080E896E9A8E9B0E0809329029E
:1009C00090932A02A0932B02B0932C028CE0809388
:1009D0002D021FB7F89480913A01811124C0EAE9F1
:1009E000F0E08491EEEAF0E09491E82FF0E0EE0F71
:1009F000FF1FEA57FF4FA591B491EC91E92321F431
:100A000061E08AE00E94B1008AE00E9487008CB514
:100A100080618CBD8CB580648CBD8DE00E948700A8
:100A20008BE00E94870080913A018F5F80933A01AA
:100A30001FBF80912D02C0902902D0902A02E09021
:100A40002B02F0902C0220E040E052E16AE770E0D7
:100A5000C416D506E606F70640F4769567955795D1
:100A600047952F5F2630A1F727E091E092278C7001
:100A70008065292F2695822B91708CBD9DBDE091BC
:100A80005001F091510182E08083E0914C01F0919E
:100A90004D011082E0914E01F0914F0180E1808381
:100AA00010925801E0915401F091550186E0808345
:100AB000E0915201F0915301808180618083E09147
:100AC0005201F0915301808188608083E09152014E
:100AD000F0915301808180688083E0915201F09110
:100AE000530180818F7D808380E00E94FD00BC01E6
:100AF000990F880B990B0E94FC096093E901709390
:100B0000EA018093EB019093EC0180E090E0ACE887
:100B1000B2E48093E1019093E201A093E301B093EA
:100B2000E401412C512C88E4682E82EC782E40920E
:100B30001F02509220026092210270922202C12C68
:100B4000D12C98E4E92E92E4F92EC0922302D0929F
:100B50002402E0922502F092260280912702009161
:100B60000B0210910C02D8018D909D90AD90BC901D
:100B7000882309F44FC0A7019601C501B4010E9462
:100B8000AC0A181634F4F801C082D182E282F382F2
:100B900010C020E030E048E452ECC501B4010E94EE
:100BA0004D0987FF06C0D8014D925D926D927C92EF
:100BB00013978090130290901402A0901502B090A9
:100BC0001602C0902302D0902402E0902502F090FB
:100BD0002602A7019601C501B4010E94AC0A1816AD
:100BE00084F0C0901F02D0902002E0902102F0908B
:100BF0002202A7019601C501B4010E944D0987FF99
:100C00003DC0C0921302D0921402E0921502F092FD
:100C1000160234C08092130290921402A092150220
:100C2000B0921602E0910902F0910A02808191814E
:100C3000A281B3818093170290931802A0931902A6
:100C4000B0931A0220E030E048E452E4C501B40158
:100C50000E94AC0A1816ACF220E030E048E452ECF6
:100C6000C501B4010E944D0987FF08C040921302DC
:100C700050921402609215027092160281E08093E5
:100C80002702A12CB12C00E010E0C12CD12C760160
:100C900060E080912E020E94B1000CB405FC0DC0F2
:100CA0001EBC00000DB407FEFDCF8EB51EBC0000BB
:100CB0000DB407FEFDCF9EB50CC01EBC00000DB4E8
:100CC00007FEFDCF9EB51EBC00000DB407FEFDCF94
:100CD0008EB5892E982E61E080912E020E94B1007F
:100CE000B40180E090E00E94FA0920E030E044EB9B
:100CF00053E40E94B10A20E030E040E857E30E944C
:100D0000B10A20E030E048E052E40E94E008362ECC
:100D1000272E8A8B9B8B9501A8010E94E0084B012E
:100D20005C0120E030E044E353E40E94AC0A181672
:100D30004CF420E030E044EB53E4C501B4010E94E0
:100D4000E00812C020E030E044E353ECC501B401F8
:100D50000E944D0987FF0BC020E030E044EB53E4D4
:100D6000C501B4010E94E1089B01AC0102C0A501CC
:100D70009401C701B6010E94E1086B017C016093F8
:100D8000E9017093EA018093EB019093EC0183E118
:100D90000E94FD0080912702882309F44EC18FB77D
:100DA000F8942091DD013091DE014091DF015091F6
:100DB000E0012E873F87488B598B8FBF80910F02B0
:100DC00090911002A0911102B09112024E855F85A0
:100DD00068897989481B590B6A0B7B0B80911B0230
:100DE00090911C02A0911D02B0911E024817590754
:100DF0006A077B0708F421C12091090230910A0299
:100E0000D9018D919D910D90BC91A02D89839A83DC
:100E1000AB83BC83E0910D02F0910E029C01AD0109
:100E200060817181828193810E94E0084B015C01A5
:100E300020911702309118024091190250911A0224
:100E400069817A818B819C810E94E0086D837E8319
:100E50008F8398872091FD013091FE014091FF0121
:100E600050910002C501B4010E94B10A2091130201
:100E70003091140240911502509116020E94E1082F
:100E80002B013C01609313027093140280931502AE
:100E900090931602B0912802B987B1111CC020911D
:100EA000F9013091FA014091FB015091FC016D81F3
:100EB0007E818F8198850E94B10A9B01AC01C3019C
:100EC000B2010E94E00860931302709314028093B1
:100ED00015029093160240901302509014026090F5
:100EE0001502709016020091230210912402E091E5
:100EF0002502ED8BF0912602FC8B9801AF01C30116
:100F0000B2010E94AC0A181624F4C801AD89BC894C
:100F100016C020911F023091200240912102509171
:100F200022022A873B874C875D87C301B2010E945A
:100F30004D0987FF0CC08A859B85AC85BD85809354
:100F4000130290931402A0931502B0931602998590
:100F5000992379F02091F9013091FA014091FB0138
:100F60005091FC01C501B4010E94B10A4B015C0122
:100F700003C0812C912C5401209101023091020276
:100F800040910302509104026D817E818F8198858A
:100F90000E94B10A9B01AC0160911302709114028E
:100FA00080911502909116020E94E0089B01AC010D
:100FB000C501B4010E94E1084B015C0198014D8913
:100FC0005C890E94AC0A1816ACF000911F021091C7
:100FD0002002A0912102AD8BB0912202BC8B98011E
:100FE000AD01B401C5010E944D0987FD03C0840114
:100FF000AD8ABC8AE0910B02F0910C02C801AD8968
:10100000BC8980839183A283B38329813A814B81F8
:101010005C81209317023093180240931902509379
:101020001A028E859F85A889B98980930F029093B3
:101030001002A0931102B09312028090E5019090EB
:10104000E601A090E701B090E80120E030E0A901BE
:10105000C501B4010E94AC0A18161CF4C501B40104
:1010600003C0C501B40190580E94C4093B0120E0AF
:1010700030E0A901C501B4010E944D0987FF06C0F7
:1010800061E084E00E94B10060E005C060E084E0BF
:101090000E94B10061E083E00E94B1008301075E1D
:1010A0001F4F85E00E9487000115110511F460E0D3
:1010B00004C00F3F110529F461E085E00E94B100F2
:1010C00043C0EDE6F0E084918330F9F048F48130DC
:1010D000B9F08230A1F584B5806284BD08BD34C00A
:1010E0008730E9F0883019F1843049F5809180002B
:1010F00080628093800010938B0000938A0024C04C
:1011000084B5806884BD07BD1FC080918000806861
:1011100080938000109389000093880015C080910F
:10112000B00080688093B0000093B3000DC0809140
:10113000B00080628093B0000093B40005C0003816
:1011400011050CF0B9CFB3CF8EE191E00E941E02E1
:101150004301770CAA08BB08B7FE0CC08DE20E94C1
:10116000A60066277727CB01681979098A099B09A8
:101170004AE003C04AE0C501B4010E94300285E2A2
:1011800091E00E941E0242E0C701B6010E94710276
:101190008EE291E00E941E026091E1017091E201F5
:1011A0008091E3019091E40142E00E94710287E3A3
:1011B00091E00E941E02A32CB22C0A891B8968CDE3
:1011C0005058BB27AA270E94F8080C94720A0E9464
:1011D000640A38F00E946B0A20F039F49F3F19F43A
:1011E00026F40C94610A0EF4E095E7FB0C945B0A7C
:1011F000E92F0E94830A58F3BA176207730784071E
:10120000950720F079F4A6F50C94A50A0EF4E09564
:101210000B2EBA2FA02D0B01B90190010C01CA01B0
:10122000A0011124FF27591B99F0593F50F4503E5B
:1012300068F11A16F040A22F232F342F4427585F4D
:10124000F3CF469537952795A795F0405395C9F765
:101250007EF41F16BA0B620B730B840BBAF091501D
:10126000A1F0FF0FBB1F661F771F881FC2F70EC0BC
:10127000BA0F621F731F841F48F48795779567958F
:10128000B795F7959E3F08F0B0CF9395880F08F07B
:101290009927EE0F9795879508950E94370A08F4CD
:1012A00081E008950E9466090C94720A0E946B0AFC
:1012B00058F00E94640A40F029F45F3F29F00C9432
:1012C0005B0A51110C94A60A0C94610A0E94830ACD
:1012D00068F39923B1F3552391F3951B550BBB2765
:1012E000AA2762177307840738F09F5F5F4F220FAA
:1012F000331F441FAA1FA9F335D00E2E3AF0E0E8A1
:1013000032D091505040E695001CCAF72BD0FE2FEA
:1013100029D0660F771F881FBB1F2617370748077E
:10132000AB07B0E809F0BB0B802DBF01FF27935836
:101330005F4F3AF09E3F510578F00C945B0A0C9495
:10134000A60A5F3FE4F3983ED4F3869577956795B8
:10135000B795F7959F5FC9F7880F911D969587956B
:1013600097F90895E1E0660F771F881FBB1F62178A
:1013700073078407BA0720F0621B730B840BBA0B48
:10138000EE1F88F7E09508950E94CB096894B1118B
:101390000C94A60A08950E948B0A88F09F5798F033
:1013A000B92F9927B751B0F0E1F0660F771F881F6A
:1013B000991F1AF0BA95C9F714C0B13091F00E9484
:1013C000A50AB1E008950C94A50A672F782F882705
:1013D000B85F39F0B93FCCF3869577956795B395AB
:1013E000D9F73EF490958095709561957F4F8F4F1A
:1013F0009F4F0895E89409C097FB3EF4909580951F
:10140000709561957F4F8F4F9F4F9923A9F0F92FCA
:1014100096E9BB279395F695879577956795B79548
:10142000F111F8CFFAF4BB0F11F460FF1BC06F5F2E
:101430007F4F8F4F9F4F16C0882311F096E911C040
:10144000772321F09EE8872F762F05C0662371F061
:1014500096E8862F70E060E02AF09A95660F771F75
:10146000881FDAF7880F9695879597F90895990F51
:101470000008550FAA0BE0E8FEEF16161706E8075E
:10148000F907C0F012161306E407F50798F0621B7F
:10149000730B840B950B39F40A2661F0232B242B54
:1014A000252B21F408950A2609F4A140A6958FEF73
:1014B000811D811D089597F99F6780E870E060E0C5
:1014C00008959FEF80EC089500240A9416161706DD
:1014D00018060906089500240A9412161306140625
:1014E00005060895092E0394000C11F4882352F088
:1014F000BB0F40F4BF2B11F460FF04C06F5F7F4F40
:101500008F4F9F4F089557FD9058440F551F59F026
:101510005F3F71F04795880F97FB991F61F09F3FE0
:1015200079F087950895121613061406551FF2CF09
:101530004695F1DF08C0161617061806991FF1CF59
:1015400086957105610508940895E894BB27662780
:101550007727CB0197F908950E94370A08F48FEF97
:1015600008950E94C40A0C94720A0E94640A38F01A
:101570000E946B0A20F0952311F00C945B0A0C94E6
:10158000610A11240C94A60A0E94830A70F3959FA5
:10159000C1F3950F50E0551F629FF001729FBB276A
:1015A000F00DB11D639FAA27F00DB11DAA1F649F06
:1015B0006627B00DA11D661F829F2227B00DA11DB9
:1015C000621F739FB00DA11D621F839FA00D611D3F
:1015D000221F749F3327A00D611D231F849F600D60
:1015E000211D822F762F6A2F11249F5750409AF089
:1015F000F1F088234AF0EE0FFF1FBB1F661F771F15
:10160000881F91505040A9F79E3F510580F00C94DF
:101610005B0A0C94A60A5F3FE4F3983ED4F38695E8
:1016200077956795B795F795E7959F5FC1F7FE2B7F
:10163000880F911D9695879597F908950E94370A0E
:10164000880B990B0895A1E21A2EAA1BBB1BFD0162
:101650000DC0AA1FBB1FEE1FFF1FA217B307E40791
:10166000F50720F0A21BB30BE40BF50B661F771FE9
:10167000881F991F1A9469F76095709580959095C9
:101680009B01AC01BD01CF010895EE0FFF1F059036
:10169000F491E02D099481E090E0F8940C94500BC3
:0416A000F894FFCFEC
:1016A40000000000AB0114014301F2017401520176
:1016B40066016E616E00696E66006F766600204F8B
:1016C40075743A2000207C20416E673A2000207C0B
:0A16D400207265663A20000D0A003E
:00000001FF
